:100000001BC033C032C031C001C32FC02EC02DC0B1
:100010002CC02BC02AC029C028C027C026C025C09C
:1000200024C023C022C021C020C032C148C1A5C104
:10003000F9C187C1E4C10EC211241FBECFEDCDBFEF
:1000400010E0A0E6B0E0E6EEF6E002C005900D920A
:10005000A236B107D9F720E0A2E6B0E001C01D92B8
:10006000A338B207E1F7FAD23CC3CACF10926500B9
:10007000E2E6F0E0118210820895CF93C09165000E
:10008000C130C9F018F0C23079F134C0869906C089
:10009000109262001092640081E01EC080916200A4
:1000A000882341F18093630063E670E082E007D229
:1000B000109262001FC082E097D20A97D8F086990A
:1000C0000EC0C09362008091640091E0980F9093FD
:1000D00064008D3230F082E08093650002C010929F
:1000E000650082E0CF9189C2869B04C0C093620004
:1000F00010926500CF9108951092690081E07DC251
:1001000080916900813069F018F08230F1F1089532
:1001100081E06AD2892B09F444C081E080936900B0
:100120006CC286B383702091660090916700213085
:1001300099F01CF4222331F01DC0223091F02330BD
:10014000A9F018C0823011F49F5F03C0813091F490
:100150009150909367000EC08823B1F38330C1F3B0
:1001600009C0833089F3882399F304C0813061F397
:10017000823071F380936600809167008D5F8730D5
:1001800070F082E080936900089580916700809309
:1001900068001092670068E670E081E090D11092EC
:1001A0006900089580917300882349F0809175005B
:1001B00086BF12BE80B7806880BF949A04C080B7A3
:1001C0008F7780BF949880917400882349F0809144
:1001D00076008CBF12BE80B7806280BF939A08956C
:1001E00080B78F7D80BF93980895CF93CFB7F89451
:1001F000E199FECF42E050E060E070E085E790E0FA
:100200004DD2CFBFCF91089510926B00EEDF809159
:10021000750081508E3F18F080E1809375008091C9
:10022000760081508E3F18F080E180937600109226
:100230007400109273000895CF93CFB7F894E199AA
:10024000FECF813081F050F0823091F442E050E0F6
:1002500060E070E085E790E02FD20AC06091750001
:1002600080E090E004C06091760081E090E02CD2C4
:10027000CFBFCF910895CF93E0916B008E2F90E088
:100280008730910508F00EC1FC01EB5EFF4F099429
:1002900082E027D1882309F405C182E033D1FC0133
:1002A00091E0909373008081823031F490937400D8
:1002B00083E080936B00F2C090936B00EFC082E00C
:1002C00010D18823B1F082E01DD1FC018081823001
:1002D00031F480E0B1DF84E080936A0007C01092BF
:1002E000730081E0809374005DDF82E080936B0097
:1002F000D6C081E0F6D0882309F4D4C081E002D1D1
:10030000FC0190917500913A10F088E001C084E002
:100310008093600020818091600012162CF4980F69
:10032000903E48F080EE04C0981B903120F480E1AC
:100330008093750002C0909375008091750086BF10
:100340005CC080E051D18D32914008F4ABC0809107
:100350006A00815080936A00811107C0C1E0C09398
:10036000730020DFC0936B009DC081E0909173000B
:10037000911180E08093730091C082E0B2D0882315
:10038000A9F082E0BFD0FC018081823039F481E0A5
:1003900053DF84E080936A0085E0A8CF81E08093FA
:1003A000730080937400FEDE83E0A0CF81E099D0DB
:1003B000882309F477C081E0A5D0FC0190917600F4
:1003C000913A10F088E001C084E0809360002081C1
:1003D0008091600012162CF4980F903E48F080EE49
:1003E00004C0981B903120F480E18093760002C015
:1003F00090937600809176008CBF12BE53C080E04F
:10040000F3D08D32914008F44DC080916A00815044
:1004100080936A0081113BC081E080937400C2DE4A
:1004200082E02BC082E05DD08823E1F182E06AD0D7
:10043000FC018081823031F4FFDE84E080936A0029
:1004400086E054CF1092730010927400ABDE1092CD
:100450006B0025C080E0C8D08D32914018F18091AA
:100460006A00815080936A0081110AC081E0809304
:1004700073008093740096DE83E080936B0012C05B
:1004800081E090917300911180E08093730081E08E
:1004900090917400911180E08093740083DE80E07D
:1004A000CF91ABC0CF910895EAE7F0E010821382BC
:1004B0001682E7E7F0E01082118212820895DB01D4
:1004C000282F30E0C90163E070E0D7D0FC01E65886
:1004D000FF4F8081811104C081E08083B283A183BA
:1004E0000895282F30E0C90163E070E0C6D0865837
:1004F0009F4FFC018081823019F4108281E00895C1
:1005000080E0089590E063E070E0B7D086589F4F98
:10051000FC018181928108954FB7F89420E030E08A
:10052000A2E0C90163E070E0A8D0FC01E658FF4FEB
:100530008081823009F41082C90163E070E09DD0AF
:10054000FC01E658FF4F5081513021F4FC01E65880
:10055000FF4FA0832F5F3F4F2330310511F780E01D
:1005600090E022E0FC01E958FF4F3081323009F47D
:1005700010823081313009F4208301968330910557
:1005800089F74FBF0895ECE6F0E0118210821382E4
:100590001282158214820895FC0120816FB7F894AD
:1005A000222301F140916C0050916D0030E0420F28
:1005B000531F50936D0040936C0040916E0050911A
:1005C0006F00420F531F50936F0040936E00409195
:1005D000700050917100240F351F309371002093EB
:1005E000700010826FBF0895E82FF0E0EE0FFF1F3C
:1005F000E459FF4F808191810895E82FF0E0EE0FDC
:10060000FF1FE459FF4F1182108208951F920F922D
:100610000FB60F9211248F93809172008F5F809399
:1006200072008F910F900FBE0F901F9018951FBCF6
:100630008BE08EBD8DE790E09BBD8ABD1DBC1CBCD0
:1006400089B7806489BFBA9A8D9A83E080BF81E0C0
:1006500083BF87B38C7F87BB8E980895E8DF24DF44
:1006600092DFD2DD49DD02DD789482E790E094DF0D
:1006700002DE46DD02DD50DFF8CF0024552704C03E
:10068000080E591F880F991F009729F076956795D6
:10069000B8F37105B9F7802D952F0895A82F862FEF
:1006A000E82FE199FECF05C0EEBBE09AE3950DB2CD
:1006B0000D924150C8F70895A82F862F02C02D91A2
:1006C00004D04150E0F70895262FE199FECF1CBADF
:1006D0008EBB2DBB0FB6F894E29AE19A0FBE01963D
:0606E0000895F894FFCF1D
:0206E60004000E
:00000001FF
